:100000000C9424010C9441010C9441010C94E301E3
:100010000C9441010C9446010C9441010C94410153
:100020000C9441010C9441010C9441010C94410148
:100030000C9441010C9441010C9441010C94410138
:100040000C94460C0C9441010C9441010C94410118
:100050000C9441010C944D020C9441010C9441010B
:100060000C9441010C944101000000000000005F6D
:1000700000000007000700147F147F14242A7F2A41
:10008000122313086462364955225000050300000C
:10009000001C2241000041221C0014083E081408E4
:1000A000083E0808005030000008080808080060F2
:1000B00060000020100804023E5149453E00427F86
:1000C000400042615149462141454B311814127F8D
:1000D0001027454545393C4A494930017109050316
:1000E0003649494936064949291E0036360000007E
:1000F0005636000008142241001414141414004150
:100100002214080201510906324979413E7E11113B
:10011000117E7F494949363E414141227F4141227A
:100120001C7F494949417F090909013E4149497AF2
:100130007F0808087F00417F41002040413F017F48
:10014000081422417F404040407F020C027F7F0420
:1001500008107F3E4141413E7F090909063E415159
:10016000215E7F09192946464949493101017F012C
:10017000013F4040403F1F2040201F3F4038403F4C
:100180006314081463070870080761514945430068
:100190007F41410002040810200041417F00040219
:1001A0000102044040404040000102040020545439
:1001B00054787F48444438384444442038444448C0
:1001C0007F3854545418087E0901020C5252523E92
:1001D0007F0804047800447D40002040443D007FB7
:1001E0001028440000417F40007C041804787C08FB
:1001F00004047838444444387C1414140808141453
:10020000187C7C080404084854545420043F44409B
:10021000203C4040207C1C2040201C3C4030403C86
:1002200044281028440C5050503C4464544C440022
:100230000836410000007F00000041360800100829
:10024000081008000000000011241FBECFEFD8E006
:10025000DEBFCDBF11E0A0E0B1E0ECE3F3E202C00D
:1002600005900D92A63DB107D9F724E0A6EDB1E0C7
:1002700001C01D92AC35B207E1F70E9426020C9432
:100280009C110C9400000E94E40208951F920F92AA
:100290000FB60F9211242F933F934F935F936F9359
:1002A0007F938F939F93AF93BF93CF93EF93FF93DE
:1002B000C9B1ECE1F4E08081C82789B18083C2FF35
:1002C00024C0E6EEF3E080818F5F80838230E9F422
:1002D000809156049EEF980F923010F08530A9F46B
:1002E0001092E6039091DD03911109C0EDEDF3E06A
:1002F00091E09083938384830E94B10506C080912E
:10030000E003813011F40E949F07C3FF24C0E6EE92
:10031000F3E081818F5F81838230E9F4809156041C
:100320009EEF980F923010F08530A9F41092E703F9
:100330009091DD03911109C0EDEDF3E091E0908320
:10034000918384830E94B10506C08091DE038130D1
:1003500011F40E949F07C4FF24C0E6EEF3E08281FF
:100360008F5F82838230E9F4809156049EEF980F6C
:10037000923010F08530A9F41092E8039091DD03DB
:10038000911109C0EDEDF3E091E0908392838483B5
:100390000E94B10506C08091DF03813011F40E94F4
:1003A0009F07FF91EF91CF91BF91AF919F918F9157
:1003B0007F916F915F914F913F912F910F900FBE61
:1003C0000F901F9018951F920F920FB60F92112445
:1003D0002F933F934F935F936F937F938F939F934D
:1003E000AF93BF93EF93FF9393B1ECE1F4E081817E
:1003F000892793B1918386FF18C0E6EEF3E08381ED
:100400008F5F8383823089F41092E9038091DD034A
:10041000813049F48091E103809356040E94920751
:100420000E94FC0902C00E949C0AFF91EF91BF91BB
:10043000AF919F918F917F916F915F914F913F917C
:100440002F910F900FBE0F901F9018950E9443019F
:100450000E94AB080E94FC09FDCFE4E6F0E0808139
:100460008E7F808380E480937C008CE880937A0088
:1004700010927B008FE080937E0080E00895ECE78F
:10048000F0E09081907F90839081892B8083EAE7D0
:10049000F0E080818064808308951F920F920FB6F0
:1004A0000F9211242F938F939F93EF93FF9320919B
:1004B00078008091790090E0982F8827822B2091F6
:1004C0007C002F70213099F028F02230E9F02330A1
:1004D00041F132C09093550480935404ECE7F0E06E
:1004E0008081807F808380818160808325C090931C
:1004F0004F0480934E04ECE7F0E08081807F80839E
:1005000080818260808318C090935104809350044E
:10051000ECE7F0E08081807F80838081836080834E
:100520000BC09093530480935204ECE7F0E0808179
:10053000807F808380818083EAE7F0E0808180642F
:100540008083FF91EF919F918F912F910F900FBE1C
:100550000F901F90189584B18F7B84B984B18F7BE5
:1005600084B985B1806485B98AB18B7F8AB98AB133
:100570008B7F8AB98BB184608BB98AB1877F8AB946
:100580008AB1877F8AB98BB188608BB98AB18F7E37
:100590008AB98AB18F7E8AB98BB180618BB90E948A
:1005A0003C03089588B18E7F88B988B18D7F88B962
:1005B00088B18B7F88B988B1877F88B90E942D0266
:1005C00008950E94370C08958FEE8093640084B1E3
:1005D00014B885B19FEF95B987B1807887B988B194
:1005E0008F6788B98AB11AB88BB19BB984B1816021
:1005F00084B985B18E7F85B984B1826084B985B1B3
:100600008D7F85B984B1846084B985B18B7F85B9CC
:1006100084B1886084B985B1877F85B984B18061F0
:1006200084B985B18F7E85B984B1806284B985B182
:100630008F7D85B987B1806287B988B18F7D88B990
:1006400087B1806487B988B18F7B88B98AB18062AD
:100650008AB98BB18F7D8BB940E060E881E690E08C
:100660000E94300C13BE15BE78940E94AB020E940B
:10067000D2020E94E102089585E0809368008CE137
:1006800080936D0080E480936B0080E0089568E2C1
:1006900080E00E94120CE6E5F4E0918180811F92D7
:1006A0009F931F928F9380E091E09F938F931F926F
:1006B0008FE08F9386EF93E09F938F930E94A40E19
:1006C00061E086EF93E00E94010C0E94170C8DB749
:1006D0009EB70A960FB6F8949EBF0FBE8DBF0895C1
:1006E0008F929F92AF92BF92CF92DF92EF92FF9242
:1006F0000F931F93CF93DF93CDB7DEB728970FB635
:10070000F894DEBF0FBECDBFE982FA820B831C8353
:100710002D833E834F83588720E030EC4FE754E42D
:100720000E94CC0C4B015C016D817E818F8198858C
:10073000C980DA80EB80FC80A70196010E945A0CE8
:100740009B01AC01C501B4010E942B0E9B01AC01C1
:10075000C701B6010E945B0C28960FB6F894DEBF65
:100760000FBECDBFDF91CF911F910F91FF90EF9002
:10077000DF90CF90BF90AF909F908F9008954F9251
:100780005F926F927F928F929F92AF92BF92EF9201
:10079000FF920F931F93CF93DF93823089F18330C1
:1007A00009F459C0813009F081C0A1EDB3E04D9149
:1007B0005D916D917C911397EAEEF3E04083518354
:1007C0006283738314964D915D916D917C9117971F
:1007D000448355836683778318968D919D910D9000
:1007E000BC91A02D80879187A287B3878EE0E1E13D
:1007F000F1E0A6EFB3E001900D928A95E1F756C0C3
:10080000AEE1B4E04D915D916D917C911397EAEE6C
:10081000F3E0408351836283738318964D915D9119
:100820006D917C911B9744835583668377835096A3
:100830008D919D910D90BC91A02D80879187A2876D
:10084000B3878BE0EFE1F1E0A6EFB3E001900D920A
:100850008A95E1F72BC0AEE1B4E014964D915D911D
:100860006D917C911797EAEEF3E0408351836283A8
:1008700073831C964D915D916D917C911F9744837C
:1008800055836683778354968D919D910D90BC918D
:10089000A02D80879187A287B3878BE0EAE2F1E001
:1008A000A6EFB3E001900D928A95E1F70E94390B13
:1008B00061E086EF93E00E94010C6AE080E00E9414
:1008C000120C61E085E391E00E94010C0F2EFAEE1C
:1008D000EF2EF3E0FF2EF02DF70140805180628073
:1008E0007380C301B2010E943E0D4B015C01072ED3
:1008F000000C880B990B0E94760D9B01AC01C30183
:10090000B2010E945A0C0E943E0D04E6069F90011F
:10091000079F300D11243F932F939F928F928CE36A
:1009200091E09F938F931F921FE01F93C6EFD3E038
:10093000DF93CF930E94A40E61E0CE010E94010CD0
:1009400064E180E00E94120C61E084E491E00E9486
:10095000010CF7014480558066807780C301B201A5
:100960000E943E0D4B015C01072E000C880B990B79
:100970000E94760D9B01AC01C301B2010E945A0C8A
:100980000E943E0D069F9001079F300D11243F935A
:100990002F939F928F928BE491E09F938F931F925E
:1009A0001F93DF93CF930E94A40E61E0CE010E94BB
:1009B000010C6EE180E00E94120C61E084E591E0A0
:1009C0000E94010CF70160857185828593850E94E4
:1009D0003E0D7F936F938BE591E09F938F931F92D2
:1009E0001F93DF93CF930E94A40E61E0CE010E947B
:1009F000010C68E280E00E94120C0E944703EDB7F0
:100A0000FEB77C960FB6F894FEBF0FBEEDBFDF9128
:100A1000CF911F910F91FF90EF90BF90AF909F905B
:100A20008F907F906F905F904F9008950E94390B48
:100A300061E084E691E00E94010C6AE080E00E949F
:100A4000120C61E083E791E00E94010C8091580450
:100A5000813041F4E6EFF3E08FE49EE491838083FC
:100A600012820AC0E6EFF3E08FE496E4918380837C
:100A700086E490E09383828361E086EF93E00E94B6
:100A8000010C64E180E00E94120C61E08AE791E0D1
:100A90000E94010C80915904813041F4E6EFF3E0AB
:100AA0008FE49EE49183808312820AC0E6EFF3E034
:100AB0008FE496E49183808386E490E0938382833D
:100AC00061E086EF93E00E94010C6EE180E00E94FD
:100AD000120C61E08FE791E00E94010C80915A04B2
:100AE000813041F4E6EFF3E08FE49EE4918380836C
:100AF00012820AC0E6EFF3E08FE496E491838083EC
:100B000086E490E09383828361E086EF93E00E9425
:100B1000010C68E280E00E94120C61E085E891E03F
:100B20000E94010C80915B04813051F487E0ECE875
:100B3000F1E0A6EFB3E001900D928A95E1F709C0CC
:100B400088E0E3E9F1E0A6EFB3E001900D928A9529
:100B5000E1F761E086EF93E00E94010C0E94170C20
:100B600008958F929F92AF92BF92CF92DF92EF92B1
:100B7000FF920F931F93CF93DF9385E080935604EA
:100B80008091DF03813009F092C088E0EBE9F1E069
:100B9000A5E0B4E001900D928A95E1F78091E10320
:100BA0008230D9F480913E0490913F04A09140049A
:100BB000B0914104EAEEF3E082A793A7A4A7B5A7FA
:100BC00080912A0490912B04A0912C04B0912D04C3
:100BD00086A797A7A0ABB1AB1AC0809126049091CD
:100BE0002704A0912804B0912904EAEEF3E082A73B
:100BF00093A7A4A7B5A78091420490914304A09124
:100C00004404B091450486A797A7A0ABB1AB60910F
:100C1000540470915504C4E1D4E080E090E00E9457
:100C2000740DE880F9800A811B812C813D814E8101
:100C30005F810E9470034B015C016093E20370933B
:100C4000E3038093E4039093E5030E943E0D6B0160
:100C50007C01072E000C880B990B0E94760D9B01DE
:100C6000AC01C501B4010E945A0C0E943E0D24E65D
:100C7000269FA001279F500D11245F934F93DF9271
:100C8000CF928BE491E09F938F931F928FE08F938D
:100C900086EF93E09F938F930E94A40E8DB79EB72B
:100CA0000A960FB6F8949EBF0FBE8DBF0EC18091FD
:100CB000DE03813009F092C08CE0E3EAF1E0A5E0C8
:100CC000B4E001900D928A95E1F78091E1038230C2
:100CD000D9F48091360490913704A0913804B091F2
:100CE0003904EAEEF3E082A793A7A4A7B5A7809101
:100CF000220490912304A0912404B091250486A796
:100D000097A7A0ABB1AB1AC080911E0490911F04AD
:100D1000A0912004B0912104EAEEF3E082A793A70A
:100D2000A4A7B5A780913A0490913B04A0913C04FC
:100D3000B0913D0486A797A7A0ABB1AB60915404D6
:100D400070915504C4E1D4E080E090E00E94740DFD
:100D5000E880F9800A811B812C813D814E815F8171
:100D60000E9470034B015C016093E2037093E30304
:100D70008093E4039093E5030E943E0D6B017C0198
:100D8000072E000C880B990B0E94760D9B01AC017D
:100D9000C501B4010E945A0C0E943E0D24E6269F14
:100DA000A001279F500D11245F934F93DF92CF92A4
:100DB0008CE391E09F938F931F928FE08F9386EF48
:100DC00093E09F938F930E94A40E8DB79EB70A96CF
:100DD0000FB6F8949EBF0FBE8DBF77C08FE0E6ECD4
:100DE000F1E0A5E0B4E001900D928A95E1F78091E1
:100DF000E1038230D9F48091460490914704A09198
:100E00004804B0914904EAEEF3E082A793A7A4A7AF
:100E1000B5A78091320490913304A0913404B0912D
:100E2000350486A797A7A0ABB1AB1AC080912E045A
:100E300090912F04A0913004B0913104EAEEF3E0D8
:100E400082A793A7A4A7B5A780914A0490914B04C9
:100E5000A0914C04B0914D0486A797A7A0ABB1AB6D
:100E60006091540470915504C4E1D4E080E090E0B6
:100E70000E94740DE880F9800A811B812C813D81DC
:100E80004E815F810E9470036093E2037093E303DD
:100E90008093E4039093E5030E943E0D7F936F934C
:100EA0008BE591E09F938F931F928FE08F9386EF56
:100EB00093E09F938F930E94A40E8DB79EB70896E0
:100EC0000FB6F8949EBF0FBE8DBF0E94390B61E034
:100ED0008FEA91E00E94010C6AE080E00E94120C0F
:100EE00061E085E094E00E94010C6EE180E00E94E8
:100EF000120C61E08EEB91E00E94010C61E086EF44
:100F000093E00E94010C0E94170CDF91CF911F917A
:100F10000F91FF90EF90DF90CF90BF90AF909F9098
:100F20008F900895EDEDF3E010821182128213820A
:100F300081E0848315821682178210860895EDED74
:100F4000F3E08481809356049281913021F58230C0
:100F500089F48091E2039091E303A091E403B091BE
:100F6000E5038093260490932704A0932804B0936C
:100F700029045CC08091E2039091E303A091E40313
:100F8000B091E50380932A0490932B04A0932C0442
:100F9000B0932D044BC09091DE03913021F5823047
:100FA00089F48091E2039091E303A091E403B0916E
:100FB000E50380931E0490931F04A0932004B09334
:100FC000210434C08091E2039091E303A091E403F3
:100FD000B091E5038093220490932304A09324040A
:100FE000B093250423C0823089F48091E20390916C
:100FF000E303A091E403B091E50380932E04909362
:101000002F04A0933004B093310410C08091E20308
:101010009091E303A091E403B091E503809332043F
:1010200090933304A0933404B09335040E94920744
:101030000895EEE4F4E01782168211821082138282
:101040001282158214820895E1EDF3E0108211827C
:1010500012821382148215821682178210861186DC
:10106000128613860895EEE1F4E080E090E0A8ECAB
:10107000B1E480839183A283B38380E090E0A0E217
:10108000B2E484839583A683B78380E090E0A8E4EC
:10109000B2E480879187A287B38780E090E0A0EADE
:1010A000B2E484879587A687B78740E050E060EF79
:1010B00071E4408B518B628B738B848B958BA68BE9
:1010C000B78B0895E6E3F4E080E090E0A0EAB1ECAD
:1010D00080839183A283B38380E090E0A0EAB2E4AE
:1010E00084839583A683B783108611861286138620
:1010F00080E090E0A8ECB2E484879587A687B78764
:10110000108A118A128A138A848B958BA68BB78BCF
:101110000895E8E5F4E010821182128281E0838371
:101120000895E6EEF3E01382108211821282089590
:10113000ECE1F4E08FEF8083818308950E94E10A5F
:10114000E6E5F4E081E0808384E0818308958DE723
:101150000E94420C089580E00E943F020E941908FC
:101160000E9424080E9433080E9462080E94890895
:101170000E9491080E9492070E9498080E949E086F
:101180000E94A7080895CF92DF92EF92FF92C0903D
:10119000D103D090D203E090D303F090D4032091F8
:1011A0002204309123044091240450912504C70166
:1011B000B6010E94260E88235CF0809159048111AB
:1011C00007C081E08093590485B1816085B917C05B
:1011D00020911E0430911F0440912004509121045D
:1011E000C701B6010E94C70C88234CF480915904B2
:1011F000813029F41092590485B18E7F85B9FF9012
:10120000EF90DF90CF9008956091D9037091DA0349
:101210008091DB039091DC03209132043091330400
:1012200040913404509135040E94260E8823ACF07E
:1012300080915B04813089F410925B0488B18064F2
:1012400088B92FEF89EF90E0215080409040E1F77E
:1012500000C0000088B18F7B88B96091D90370917C
:10126000DA038091DB039091DC032091320430910A
:10127000330440913404509135040E94C70C8823F4
:10128000B4F480915B04811112C081E080935B040F
:1012900088B1806488B92FEF89EF90E021508040B9
:1012A0009040E1F700C0000088B18F7B88B90895B5
:1012B0008F929F92AF92BF92CF92DF92EF92FF9266
:1012C000C090D503D090D603E090D703F090D80318
:1012D0008090260490902704A0902804B0902904C0
:1012E000A5019401C701B6010E94C70C18165CF055
:1012F00080915804811107C081E08093580488B11F
:10130000806288B911C0A5019401C701B6010E948D
:10131000260E18164CF480915804813029F410924E
:10132000580488B18F7D88B9FF90EF90DF90CF90FF
:10133000BF90AF909F908F9008958F929F92AF92A1
:10134000BF92CF92DF92EF92FF92C090D903D090DC
:10135000DA03E090DB03F090DC0380902E049090A1
:101360002F04A0903004B0903104A5019401C7016E
:10137000B6010E94C70C88234CF581E080935A0483
:10138000A7019601C501B4010E945A0C6B017C01B2
:1013900020E030E040EA50E40E94C70C882324F4A7
:1013A00080E80E94440C1FC020E030E040E751E498
:1013B000C701B6010E94C70C882324F48AEA0E9460
:1013C000440C11C08EEF0E94440C0DC0A501940185
:1013D000C701B6010E94260E18162CF410925A046A
:1013E00080E00E94440CFF90EF90DF90CF90BF9080
:1013F000AF909F908F900895AF92BF92CF92DF925F
:10140000EF92FF920F931F93CF93DF930F2EFEE483
:10141000AF2EF4E0BF2EF02DF5016081718180E0E8
:1014200090E00E94740DE0903604F0903704009133
:1014300038041091390420913A0430913B044091D2
:101440003C0450913D040E9470030F2EF1EDCF2E0D
:10145000F3E0DF2EF02DF6016083718382839383A6
:10146000F50162817381CEE3D4E080E090E00E94D8
:10147000740DE880F9800A811B812C813D814E81A9
:101480005F810E947003F60164837583868397836E
:10149000F50164817581C6E4D4E080E090E00E94AB
:1014A000740DE880F9800A811B812C813D814E8179
:1014B0005F810E947003F60160877187828793873E
:1014C0000E94C3080E9458090E9404090E949D09B5
:1014D00080915604833099F028F4813041F08230B5
:1014E00051F016C0843079F0853081F011C081E070
:1014F0000E94BF030DC082E00E94BF0309C083E0C9
:101500000E94BF0305C00E94160502C00E94B105DB
:10151000FFEF27EE83E0F15020408040E1F700C06C
:101520000000DF91CF911F910F91FF90EF90DF901E
:10153000CF90BF90AF900895E6E5F4E080818F5F93
:1015400080839181981718F481E0809356040E945B
:10155000FC09089595B19D7F95B9662329F095B151
:10156000986095B990E01FC095B1977F95B9FACF73
:1015700047E050E0491B5109282F30E002C0359563
:1015800027954A95E2F720FF04C025B1206125B9CF
:1015900003C025B12F7E25B925B1206225B925B11B
:1015A0002F7D25B99F5F983018F385B1826085B98A
:1015B000089560E00E94AA0A089561E00E94AA0AC4
:1015C0000895CF93DF9384B1826084B984B184603D
:1015D00084B984B1886084B984B1806184B984B1EC
:1015E000806284B985B1846085B985B1826085B92E
:1015F00083EC99E00197F1F700C0000085B18B7F83
:1016000085B98BE594E40197F1F700C0000085B13E
:10161000846085B985B18D7F85B981E20E94D90A40
:1016200083E10E94D90A86E00E94D90A82EC0E94D6
:10163000D90A80E20E94D90A89E00E94D90A80E88A
:101640000E94D90A80E40E94D90AC0E0D0E004C018
:1016500080E00E94DD0A2196C83F91E0D907C0F3DF
:1016600088E00E94D90A8CE00E94D90ADF91CF91CC
:10167000089580E80E94D90A80E40E94D90A109255
:10168000CE031092CF0380E090E005C0FC01EA5247
:10169000FE4F10820196883F21E09207B8F308952B
:1016A000262F26952695269590E034E5239F800DDC
:1016B000911D1124442379F0677021E030E002C0CD
:1016C000220F331F6A95E2F7FC01EA52FE4F808138
:1016D000282B20830895677021E030E002C0220F9C
:1016E000331F6A95E2F7FC01EA52FE4F2095808194
:1016F000282320830895EF92FF920F931F93CF9397
:10170000DF93E82EF62E00E045C02E2D30E020526B
:101710003109802F6F2D0E94980EF901EE0FFF1FE7
:10172000EE0FFF1FE20FF31FE80FF11DE859FF4F07
:10173000E491812F0E94980EF0E002C0F595E795A4
:101740008A95E2F7E0FF0AC06091CF038091CE0353
:10175000610F41E0800F0E94500B09C06091CF03E0
:101760008091CE03610F40E0800F0E94500B1F5FFD
:1017700001C010E0212F30E0CE01880F991F880FA3
:10178000991F880F991F8C1B9D0B281739070CF484
:10179000BCCF0F5F202F30E0CF2DD0E0CE01880FDF
:1017A000991F880F991F8C0F9D1F281739070CF35D
:1017B000EEECF3E08F2D880F880F8F0D9081890F4D
:1017C0008F5F8083843570F01092CE03EFECF3E0EE
:1017D0008F2D880F880F880F982F9F198081890F70
:1017E0008F5F80838091CF03803320F01092CE03EF
:1017F0001092CF03DF91CF911F910F91FF90EF9047
:1018000008951F93CF93DF93EC01162F04C0219608
:10181000612F0E947B0B88818111F9CFDF91CF91DD
:101820001F9108958093CE036093CF030895CF93C3
:10183000DF9380E80E94D90A80E40E94D90AC0E0C0
:10184000D0E007C0FE01EA52FE4F80810E94DD0A0F
:101850002196C83F81E0D807A8F3DF91CF91089582
:101860002FB7F894FC01608340832FBF0895E4E60E
:10187000F0E080818F7D808383EA84BD81E085BD37
:1018800080E0089587BD089588BD08951F920F9246
:101890000FB60F9211248F9385B3816085BB809121
:1018A000D0038F5F8093D0038F910F900FBE0F9066
:1018B0001F9018955058BB27AA270E94720C0C94B1
:1018C000EC0D0E94DE0D38F00E94E50D20F039F499
:1018D0009F3F19F426F40C94DB0D0EF4E095E7FB22
:1018E0000C94D50DE92F0E94FD0D58F3BA1762072D
:1018F00073078407950720F079F4A6F50C941F0E62
:101900000EF4E0950B2EBA2FA02D0B01B90190011A
:101910000C01CA01A0011124FF27591B99F0593F5E
:1019200050F4503E68F11A16F040A22F232F342FA6
:101930004427585FF3CF469537952795A795F040F4
:101940005395C9F77EF41F16BA0B620B730B840B09
:10195000BAF09150A1F0FF0FBB1F661F771F881FC1
:10196000C2F70EC0BA0F621F731F841F48F4879519
:1019700077956795B795F7959E3F08F0B0CF93950B
:10198000880F08F09927EE0F9795879508950E9484
:10199000B10D08F481E008950E94E00C0C94EC0D68
:1019A0000E94E50D58F00E94DE0D40F029F45F3FE3
:1019B00029F00C94D50D51110C94200E0C94DB0DD4
:1019C0000E94FD0D68F39923B1F3552391F3951B04
:1019D000550BBB27AA2762177307840738F09F5F50
:1019E0005F4F220F331F441FAA1FA9F335D00E2EBD
:1019F0003AF0E0E832D091505040E695001CCAF72A
:101A00002BD0FE2F29D0660F771F881FBB1F2617EC
:101A100037074807AB07B0E809F0BB0B802DBF01C3
:101A2000FF2793585F4F3AF09E3F510578F00C9492
:101A3000D50D0C94200E5F3FE4F3983ED4F38695C9
:101A400077956795B795F7959F5FC9F7880F911DB3
:101A50009695879597F90895E1E0660F771F881F9F
:101A6000BB1F621773078407BA0720F0621B730B52
:101A7000840BBA0BEE1F88F7E09508950E94450D80
:101A80006894B1110C94200E08950E94050E88F000
:101A90009F5798F0B92F9927B751B0F0E1F0660F32
:101AA000771F881F991F1AF0BA95C9F714C0B13073
:101AB00091F00E941F0EB1E008950C941F0E672F45
:101AC000782F8827B85F39F0B93FCCF386957795A2
:101AD0006795B395D9F73EF490958095709561958B
:101AE0007F4F8F4F9F4F0895E89409C097FB3EF4B6
:101AF00090958095709561957F4F8F4F9F4F99235B
:101B0000A9F0F92F96E9BB279395F69587957795D8
:101B10006795B795F111F8CFFAF4BB0F11F460FF98
:101B20001BC06F5F7F4F8F4F9F4F16C0882311F0F0
:101B300096E911C0772321F09EE8872F762F05C004
:101B4000662371F096E8862F70E060E02AF09A959F
:101B5000660F771F881FDAF7880F9695879597F994
:101B60000895990F0008550FAA0BE0E8FEEF16162E
:101B70001706E807F907C0F012161306E407F50781
:101B800098F0621B730B840B950B39F40A2661F0F5
:101B9000232B242B252B21F408950A2609F4A14098
:101BA000A6958FEF811D811D089597F99F6780E8A5
:101BB00070E060E008959FEF80EC089500240A949F
:101BC0001616170618060906089500240A94121618
:101BD0001306140605060895092E0394000C11F44B
:101BE000882352F0BB0F40F4BF2B11F460FF04C0F8
:101BF0006F5F7F4F8F4F9F4F089557FD9058440F51
:101C0000551F59F05F3F71F04795880F97FB991F5B
:101C100061F09F3F79F08795089512161306140618
:101C2000551FF2CF4695F1DF08C0161617061806A5
:101C3000991FF1CF86957105610508940895E89480
:101C4000BB2766277727CB0197F908950E94B10D2E
:101C500008F48FEF08950E943E0E0C94EC0D0E9444
:101C6000DE0D38F00E94E50D20F0952311F00C9464
:101C7000D50D0C94DB0D11240C94200E0E94FD0D4B
:101C800070F3959FC1F3950F50E0551F629FF001CF
:101C9000729FBB27F00DB11D639FAA27F00DB11DE8
:101CA000AA1F649F6627B00DA11D661F829F222771
:101CB000B00DA11D621F739FB00DA11D621F839FF8
:101CC000A00D611D221F749F3327A00D611D231FCE
:101CD000849F600D211D822F762F6A2F11249F571C
:101CE00050409AF0F1F088234AF0EE0FFF1FBB1F1F
:101CF000661F771F881F91505040A9F79E3F5105DE
:101D000080F00C94D50D0C94200E5F3FE4F3983EC8
:101D1000D4F3869577956795B795F795E7959F5F87
:101D2000C1F7FE2B880F911D9695879597F9089519
:101D3000991B79E004C0991F961708F0961B881F1D
:101D40007A95C9F780950895AEE0B0E0EAEAFEE042
:101D50000C9473110D891E898F89988D26E02C8330
:101D60001A83098397FF02C080E090E801979E8361
:101D70008D83AE01455E5F4F698D7A8DCE010196F0
:101D80000E94D40E4D815E8157FD0AC02F81388597
:101D9000421753070CF49A01F801E20FF31F108267
:101DA0002E96E4E00C948F11ABE0B0E0EAEDFEE09B
:101DB0000C9465116C017B018A01FC01178216826B
:101DC000838181FFCCC1CE0101963C01F601938154
:101DD000F70193FD859193FF81917F01882309F499
:101DE000BAC1853239F493FD859193FF81917F01CA
:101DF000853229F4B60190E00E94CB10E7CF912CF8
:101E0000212C312CFFE1F315D8F08B3279F038F426
:101E1000803279F08332A1F4232D20611DC08D32F0
:101E200061F0803369F4232D216016C0832D826018
:101E3000382EE32DE4603E2E2AC0F32DF8601DC03D
:101E400037FC2DC020ED280F2A3040F08E32B9F437
:101E500036FC81C1232D2064322E19C036FE06C007
:101E60008AE0989E200D1124922E11C0EAE02E9E49
:101E7000200D1124222EF32DF0623F2E08C08C3647
:101E800021F4832D8068382E02C0883641F4F70192
:101E900093FD859193FF81917F018111B3CF982F9D
:101EA0009F7D9554933028F40C5F1F4F9FE39983D7
:101EB0000DC0833631F0833771F0833509F059C096
:101EC00021C0F801808189830E5F1F4F882483948D
:101ED000912C530113C02801F2E04F0E511CF80160
:101EE000A080B18036FE03C0692D70E002C06FEFA4
:101EF0007FEFC5010E94C0104C018201F32DFF77D6
:101F00003F2E16C0280122E0420E511CF801A0808D
:101F1000B18036FE03C0692D70E002C06FEF7FEF25
:101F2000C5010E94B5104C01F32DF0683F2E8201CF
:101F300033FC1BC0822D90E088169906B0F4B601E0
:101F400080E290E00E94CB102A94F4CFF50137FC98
:101F5000859137FE81915F01B60190E00E94CB1020
:101F600021102A9421E0821A91088114910471F7BA
:101F7000E8C0843611F0893641F5F80137FE07C014
:101F800060817181828193810C5F1F4F08C06081E5
:101F90007181072E000C880B990B0E5F1F4FF32DDC
:101FA000FF763F2E97FF09C09095809570956195BB
:101FB0007F4F8F4F9F4FF0683F2E2AE030E0A30104
:101FC0000E940711882E861845C0853731F4232DCD
:101FD0002F7EB22E2AE030E025C0932D997FB92EB6
:101FE0008F36C1F018F4883579F0B5C0803719F014
:101FF000883721F0B0C0E92FE061BE2EB4FE0DC0DD
:10200000FB2DF460BF2E09C034FE0AC0292F2660C4
:10201000B22E06C028E030E005C020E130E002C06A
:1020200020E132E0F801B7FE07C060817181828152
:1020300093810C5F1F4F06C06081718180E090E04A
:102040000E5F1F4FA3010E940711882E8618FB2DDB
:10205000FF773F2E36FE0DC0232D2E7FA22E891432
:1020600058F434FE0BC032FC09C0832D8E7EA82E9E
:1020700005C0B82CA32C03C0B82C01C0B92CA4FEF9
:102080000FC0FE01E80DF11D8081803321F49A2DEF
:10209000997EA92E09C0A2FE06C0B394B39404C0D1
:1020A0008A2D867809F0B394A3FC11C0A0FE06C067
:1020B000B21488F4280C922C9B180EC0B21460F451
:1020C000B60180E290E00E94CB10B394F7CFB21437
:1020D00018F42B1802C0982C212CA4FE10C0B601B5
:1020E00080E390E00E94CB10A2FE17C0A1FC03C0C9
:1020F00088E790E002C088E590E0B6010CC08A2D28
:10210000867859F0A1FE02C08BE201C080E2A7FCF4
:102110008DE2B60190E00E94CB10891438F4B6012C
:1021200080E390E00E94CB109A94F7CF8A94F30159
:10213000E80DF11D8081B60190E00E94CB10811066
:10214000F5CF222009F442CEB60180E290E00E9451
:10215000CB102A94F6CFF6018681978102C08FEFCB
:102160009FEF2B96E2E10C948111FC0105906150E8
:1021700070400110D8F7809590958E0F9F1F08959D
:10218000FC016150704001900110D8F78095909546
:102190008E0F9F1F08950F931F93CF93DF93FB0123
:1021A000238121FD03C08FEF9FEF2CC022FF16C0BB
:1021B00046815781248135814217530744F4A08119
:1021C000B1819D012F5F3F4F318320838C93268106
:1021D00037812F5F3F4F3783268314C08B01EC017B
:1021E000FB010084F185E02D0995892BE1F6D801EA
:1021F00016968D919C911797019617969C938E93A6
:102200001697CE01DF91CF911F910F910895FA019A
:10221000AA27283051F1203181F1E8946F936E7F25
:102220006E5F7F4F8F4F9F4FAF4FB1E03ED0B4E016
:102230003CD0670F781F891F9A1FA11D680F791F57
:102240008A1F911DA11D6A0F711D811D911DA11D68
:1022500020D009F468943F912AE0269F1124301978
:10226000305D3193DEF6CF010895462F4770405D13
:102270004193B3E00FD0C9F7F6CF462F4F70405DC2
:102280004A3318F0495D31FD4052419302D0A9F71D
:10229000EACFB4E0A6959795879577956795BA9517
:1022A000C9F700976105710508959B01AC010A2EDD
:1022B00006945795479537952795BA95C9F7620FB4
:1022C000731F841F951FA01D08952F923F924F9258
:1022D0005F926F927F928F929F92AF92BF92CF92B6
:1022E000DF92EF92FF920F931F93CF93DF93CDB7BF
:1022F000DEB7CA1BDB0B0FB6F894DEBF0FBECDBF37
:1023000009942A88398848885F846E847D848C8407
:102310009B84AA84B984C884DF80EE80FD800C8110
:102320001B81AA81B981CE0FD11D0FB6F894DEBFF3
:0C2330000FBECDBFED010895F894FFCF63
:10233C0020202020706167696E612025642F256440
:10234C00004461646F73206D656469646F7300434E
:10235C006F6E666967206D696E00436F6E666967A4
:10236C00206D61780054656D703A200025642C2531
:10237C0064204300556D69643A200025642C256463
:10238C0020252500526164733A2000256420572FC4
:10239C006674320053746174757320617475616472
:1023AC006F7200416775613A200041723A20004C0F
:1023BC0045443A20005465746F3A200041626572BE
:1023CC00746F004665636861646F00556D69646184
:1023DC0064650054656D7065726174757261004D51
:1023EC006F646F2064652045646963616F0056619A
:1023FC006C6F723A2000526164696163616F2053A3
:06240C006F6C617200001C
:00000001FF
