S01A00004A617264696D5F496E74656C6967656E74652E73726563DC
S11300000C9424010C9441010C9441010C94E301DF
S11300100C9441010C9446010C9441010C9441014F
S11300200C9441010C9441010C9441010C94410144
S11300300C9441010C9441010C9441010C94410134
S11300400C94D00B0C9441010C9441010C9441018B
S11300500C9441010C9451020C9441010C94410103
S11300600C9441010C944101000000000000005F69
S113007000000007000700147F147F14242A7F2A3D
S11300801223130864623649552250000503000008
S1130090001C2241000041221C0014083E081408E0
S11300A0083E0808005030000008080808080060EE
S11300B060000020100804023E5149453E00427F82
S11300C0400042615149462141454B311814127F89
S11300D01027454545393C4A494930017109050312
S11300E03649494936064949291E0036360000007A
S11300F0563600000814224100141414141400414C
S11301002214080201510906324979413E7E111137
S1130110117E7F494949363E414141227F41412276
S11301201C7F494949417F090909013E4149497AEE
S11301307F0808087F00417F41002040413F017F44
S1130140081422417F404040407F020C027F7F041C
S113015008107F3E4141413E7F090909063E415155
S1130160215E7F09192946464949493101017F0128
S1130170013F4040403F1F2040201F3F4038403F48
S11301806314081463070870080761514945430064
S11301907F41410002040810200041417F00040215
S11301A00102044040404040000102040020545435
S11301B054787F48444438384444442038444448BC
S11301C07F3854545418087E0901020C5252523E8E
S11301D07F0804047800447D40002040443D007FB3
S11301E01028440000417F40007C041804787C08F7
S11301F004047838444444387C141414080814144F
S1130200187C7C080404084854545420043F444097
S1130210203C4040207C1C2040201C3C4030403C82
S113022044281028440C5050503C4464544C44001E
S11302300836410000007F00000041360800100825
S1130240081008000000000011241FBECFEFD8E002
S1130250DEBFCDBF11E0A0E0B1E0E0E5F2E202C014
S113026005900D92A63CB107D9F724E0A6ECB1E0C5
S113027001C01D92AC34B207E1F70E9426020C942F
S113028026110C9400000E94DF0208951F920F9221
S11302900FB60F9211242F933F934F935F936F9355
S11302A07F938F939F93AF93BF93CF93EF93FF93DA
S11302B0C9B1ECE0F4E08081C82789B18083C2FF32
S11302C024C0E6EDF3E080818F5F80838230E9F41F
S11302D0809146049EEF980F923010F08530A9F477
S11302E01092D6039091CD03911109C0EDECF3E087
S11302F091E09083938384830E949B0506C0809140
S1130300D003813011F40E948907C3FF24C0E6EDB5
S1130310F3E081818F5F81838230E9F48091460428
S11303209EEF980F923010F08530A9F41092D70305
S11303309091CD03911109C0EDECF3E091E090832D
S1130340918384830E949B0506C08091CE038130F3
S113035011F40E948907C4FF24C0E6EDF3E0828112
S11303608F5F82838230E9F4809146049EEF980F78
S1130370923010F08530A9F41092D8039091CD03F7
S1130380911109C0EDECF3E091E0908392838483B2
S11303900E949B0506C08091CF03813011F40E9416
S11303A08907FF91EF91CF91BF91AF919F918F9169
S11303B07F916F915F914F913F912F910F900FBE5D
S11303C00F901F9018951F920F920FB60F92112441
S11303D02F933F934F935F936F937F938F939F9349
S11303E0AF93BF93EF93FF9393B1ECE0F4E081817B
S11303F0892793B1918386FF18C0E6EDF3E08381EA
S11304008F5F8383823089F41092D9038091CD0366
S1130410813049F48091D103809346040E947C0783
S11304200E948E0902C00E942C0AFF91EF91BF9195
S1130430AF919F918F917F916F915F914F913F9178
S11304402F910F900FBE0F901F90189578940E94D3
S113045043010E9490080E948E09FDCF10BE80E0E7
S11304600895E4E6F0E080818E7F808380E48093C9
S11304707C008CE880937A0010927B008FE080935C
S11304807E0080E00895ECE7F0E09081907F908317
S11304909081892B8083EAE7F0E080818064808307
S11304A008951F920F920FB60F9211242F938F93DA
S11304B09F93EF93FF93209178008091790090E0CF
S11304C0982F8827822B20917C002F70213099F05F
S11304D028F02230E9F0233041F132C090934504F2
S11304E080934404ECE7F0E08081807F8083808106
S11304F08160808325C090933F0480933E04ECE7A1
S1130500F0E08081807F808380818260808318C056
S11305109093410480934004ECE7F0E08081807F75
S113052080838081836080830BC090934304809395
S11305304204ECE7F0E08081807F808380818083C7
S1130540EAE7F0E0808180648083FF91EF919F91DE
S11305508F912F910F900FBE0F901F90189584B11B
S11305608F7B84B985B18F7B85B98AB18B7F8AB93A
S11305708BB18B7F8BB98AB1877F8AB98BB1877F27
S11305808BB98AB18F7E8AB98BB18F7E8BB90E9469
S11305902703089588B18E7F88B988B18D7F88B983
S11305A088B18B7F88B988B1877F88B90E9431026E
S11305B008950E942E0208950E94C70B08958FEE9D
S11305C08093640084B114B885B19FEF95B987B165
S11305D0807887B988B18F6788B98AB11AB88BB126
S11305E09BB984B1826084B985B18D7F85B984B1AA
S11305F0846084B985B18B7F85B984B1886084B9FE
S113060085B1877F85B984B1806184B985B18F7ED6
S113061085B984B1806284B985B18F7D85B98BB188
S11306208F7B8BB98BB18F778BB940E060E881E623
S113063090E00E94C00B13BE15BE78940E94AF02D6
S11306400E94CA020E94D9020E94DC02089585E039
S1130650809368008CE180936D0080E480936B004C
S113066080E0089568E280E00E94A20BE6E4F4E0F2
S1130670918180811F929F931F928F9380E091E0DC
S11306809F938F931F928FE08F9386EE93E09F93B7
S11306908F930E942E0E61E086EE93E00E94910BF0
S11306A00E94A70B8DB79EB70A960FB6F8949EBF0B
S11306B00FBE8DBF08958F929F92AF92BF92CF923B
S11306C0DF92EF92FF920F931F93CF93DF93CDB7F7
S11306D0DEB728970FB6F894DEBF0FBECDBFE98210
S11306E0FA820B831C832D833E834F83588720E03B
S11306F030EC4FE754E40E94560C4B015C016D81D1
S11307007E818F819885C980DA80EB80FC80A70187
S113071096010E94E40B9B01AC01C501B4010E9447
S1130720B50D9B01AC01C701B6010E94E50B2896EB
S11307300FB6F894DEBF0FBECDBFDF91CF911F91EE
S11307400F91FF90EF90DF90CF90BF90AF909F906C
S11307508F9008954F925F926F927F928F929F92A3
S1130760AF92BF92EF92FF920F931F93CF93DF93B9
S1130770823089F1833009F459C0813009F081C095
S1130780A1ECB3E04D915D916D917C911397EAEDED
S1130790F3E0408351836283738314964D915D919A
S11307A06D917C911797448355836683778318965C
S11307B08D919D910D90BC91A02D80879187A287EA
S11307C0B3878EE0E1E1F1E0A6EEB3E001900D9293
S11307D08A95E1F756C0AEE0B4E04D915D916D911C
S11307E07C911397EAEDF3E0408351836283738332
S11307F018964D915D916D917C911B97448355831F
S11308006683778350968D919D910D90BC91A02D18
S113081080879187A287B3878BE0EFE1F1E0A6EEB2
S1130820B3E001900D928A95E1F72BC0AEE0B4E0FD
S113083014964D915D916D917C911797EAEDF3E0DB
S113084040835183628373831C964D915D916D91B6
S11308507C911F97448355836683778354968D9147
S11308609D910D90BC91A02D80879187A287B3871D
S11308708BE0EAE2F1E0A6EEB3E001900D928A95F6
S1130880E1F70E94C90A61E086EE93E00E94910BB1
S11308906AE080E00E94A20B61E085E391E00E949F
S11308A0910B0F2EFAEDEF2EF3E0FF2EF02DF70152
S11308B04080518062807380C301B2010E94C80CE1
S11308C04B015C01072E000C880B990B0E94000D54
S11308D09B01AC01C301B2010E94E40B0E94C80C4D
S11308E004E6069F9001079F300D11243F932F9338
S11308F09F928F928CE391E09F938F931F921FE0BE
S11309001F93C6EED3E0DF93CF930E942E0E61E0D7
S1130910CE010E94910B64E180E00E94A20B61E091
S113092084E491E00E94910BF70144805580668035
S11309307780C301B2010E94C80C4B015C01072EF1
S1130940000C880B990B0E94000D9B01AC01C301A4
S1130950B2010E94E40B0E94C80C069F9001079FFD
S1130960300D11243F932F939F928F928BE491E04B
S11309709F938F931F921F93DF93CF930E942E0E0A
S113098061E0CE010E94910B6EE180E00E94A20B17
S113099061E084E591E00E94910BF7016085718527
S11309A0828593850E94C80C7F936F938BE591E0B9
S11309B09F938F931F921F93DF93CF930E942E0ECA
S11309C061E0CE010E94910B68E280E00E94A20BDC
S11309D00E943203EDB7FEB77C960FB6F894FEBFC3
S11309E00FBEEDBFDF91CF911F910F91FF90EF905C
S11309F0BF90AF909F908F907F906F905F904F903B
S1130A0008950E94C90A61E084E691E00E94910B76
S1130A106AE080E00E94A20B61E083E791E00E941B
S1130A20910B80914804813041F4E6EEF3E08FE4C9
S1130A309EE49183808312820AC0E6EEF3E08FE4A1
S1130A4096E49183808386E490E09383828361E0DB
S1130A5086EE93E00E94910B64E180E00E94A20B79
S1130A6061E08AE791E00E94910B80914904813012
S1130A7041F4E6EEF3E08FE49EE4918380831282F6
S1130A800AC0E6EEF3E08FE496E49183808386E483
S1130A9090E09383828361E086EE93E00E94910B61
S1130AA06EE180E00E94A20B61E08FE791E00E947A
S1130AB0910B80914A04813041F4E6EEF3E08FE437
S1130AC09EE49183808312820AC0E6EEF3E08FE411
S1130AD096E49183808386E490E09383828361E04B
S1130AE086EE93E00E94910B68E280E00E94A20BE4
S1130AF061E085E891E00E94910B80914B04813084
S1130B0041F4E6EEF3E08FE49EE491838083128265
S1130B100AC0E6EEF3E08FE496E49183808386E4F2
S1130B2090E09383828361E086EE93E00E94910BD0
S1130B300E94A70B08958F929F92AF92BF92CF927B
S1130B40DF92EF92FF920F931F93CF93DF9385E091
S1130B50809346048091CF03813009F092C088E0ED
S1130B60ECE8F1E0A5EFB3E001900D928A95E1F78E
S1130B708091D1038230D9F480912E0490912F0476
S1130B80A0913004B0913104EAEDF3E082A793A779
S1130B90A4A7B5A780911A0490911B04A0911C04EA
S1130BA0B0911D0486A797A7A0ABB1AB1AC08091E2
S1130BB0160490911704A0911804B0911904EAED59
S1130BC0F3E082A793A7A4A7B5A7809132049091DC
S1130BD03304A0913404B091350486A797A7A0AB41
S1130BE0B1AB6091440470914504C4E0D4E080E06A
S1130BF090E00E94FE0CE880F9800A811B812C8120
S1130C003D814E815F810E945B034B015C016093D7
S1130C10D2037093D3038093D4039093D5030E949B
S1130C20C80C6B017C01072E000C880B990B0E94E9
S1130C30000D9B01AC01C501B4010E94E40B0E94AC
S1130C40C80C24E6269FA001279F500D11245F9312
S1130C504F93DF92CF928BE491E09F938F931F92F7
S1130C608FE08F9386EE93E09F938F930E942E0ED6
S1130C708DB79EB70A960FB6F8949EBF0FBE8DBF70
S1130C800EC18091CE03813009F092C08CE0E4E97A
S1130C90F1E0A5EFB3E001900D928A95E1F7809120
S1130CA0D1038230D9F48091260490912704A09135
S1130CB02804B0912904EAEDF3E082A793A7A4A73E
S1130CC0B5A78091120490911304A0911404B091DB
S1130CD0150486A797A7A0ABB1AB1AC080910E04E8
S1130CE090910F04A0911004B0911104EAEDF3E087
S1130CF082A793A7A4A7B5A780912A0490912B0457
S1130D00A0912C04B0912D0486A797A7A0ABB1ABFA
S1130D106091440470914504C4E0D4E080E090E024
S1130D200E94FE0CE880F9800A811B812C813D81A0
S1130D304E815F810E945B034B015C016093D2038F
S1130D407093D3038093D4039093D5030E94C80C6B
S1130D506B017C01072E000C880B990B0E94000D7F
S1130D609B01AC01C501B4010E94E40B0E94C80CB4
S1130D7024E6269FA001279F500D11245F934F93D3
S1130D80DF92CF928CE391E09F938F931F928FE039
S1130D908F9386EE93E09F938F930E942E0E8DB7D0
S1130DA09EB70A960FB6F8949EBF0FBE8DBF77C04C
S1130DB08FE0E7EBF1E0A5EFB3E001900D928A95A7
S1130DC0E1F78091D1038230D9F480913604909177
S1130DD03704A0913804B0913904EAEDF3E082A716
S1130DE093A7A4A7B5A78091220490912304A0916E
S1130DF02404B091250486A797A7A0ABB1AB1AC071
S1130E0080911E0490911F04A0912004B0912104AC
S1130E10EAEDF3E082A793A7A4A7B5A780913A04CB
S1130E2090913B04A0913C04B0913D0486A797A700
S1130E30A0ABB1AB6091440470914504C4E0D4E02C
S1130E4080E090E00E94FE0CE880F9800A811B811A
S1130E502C813D814E815F810E945B036093D203AC
S1130E607093D3038093D4039093D5030E94C80C4A
S1130E707F936F938BE591E09F938F931F928FE005
S1130E808F9386EE93E09F938F930E942E0E8DB7DF
S1130E909EB708960FB6F8949EBF0FBE8DBF0E94F2
S1130EA0C90A61E080EA91E00E94910B6AE080E067
S1130EB00E94A20B61E085EF93E00E94910B6EE12A
S1130EC080E00E94A20B61E08FEA91E00E94910B06
S1130ED061E086EE93E00E94910B0E94A70BDF91E4
S1130EE0CF911F910F91FF90EF90DF90CF90BF9023
S1130EF0AF909F908F900895EDECF3E010821182F3
S1130F001282138281E084831582168217821086EE
S1130F100895EDECF3E0848180934604928191304E
S1130F2021F5823089F48091D2039091D303A0916A
S1130F30D403B091D5038093160490931704A0931F
S1130F401804B09319045CC08091D2039091D30328
S1130F50A091D403B091D50380931A0490931B04F9
S1130F60A0931C04B0931D044BC09091CE03913008
S1130F7021F5823089F48091D2039091D303A0911A
S1130F80D403B091D50380930E0490930F04A093DF
S1130F901004B093110434C08091D2039091D30310
S1130FA0A091D403B091D5038093120490931304B9
S1130FB0A0931404B093150423C0823089F4809163
S1130FC0D2039091D303A091D403B091D50380931D
S1130FD01E0490931F04A0932004B093210410C016
S1130FE08091D2039091D303A091D403B091D503FF
S1130FF08093220490932304A0932404B0932504A3
S11310000E947C070895EEE3F4E0178216821182B1
S1131010108213821282158214820895E1ECF3E0A7
S11310201082118212821382148215821682178210
S113103010861186128613860895EEE0F4E080E0AF
S113104090E0A8ECB1E480839183A283B38380E031
S113105090E0A0E2B2E484839583A683B78380E022
S113106090E0A8E4B2E480879187A287B38780E008
S113107090E0A0EAB2E484879587A687B78740E02A
S113108050E060EF71E4408B518B628B738B848BE7
S1131090958BA68BB78B0895E6E2F4E080E090E0B0
S11310A0A0EAB1EC80839183A283B38380E090E0D3
S11310B0A0EAB2E484839583A683B783108611865D
S11310C01286138680E090E0A8ECB2E484879587CA
S11310D0A687B787108A118A128A138A848B958B04
S11310E0A68BB78B0895E8E4F4E010821182128293
S11310F013820895E6EDF3E01382108211821282C6
S11311000895ECE0F4E08FEF8083818308950E94DA
S1131110710AE6E4F4E081E0808384E08183089549
S113112080E00E9443020E9403080E940E080E946D
S11311301D080E944C080E9473080E947A080E94AD
S11311407C070E9481080E9487080895CF92DF924D
S1131150EF92FF92C090C103D090C203E090C3030A
S1131160F090C403209112043091130440911404AC
S113117050911504C701B6010E94B00D88235CF09C
S113118080914904811107C081E08093490485B1AD
S1131190816085B917C020910E0430910F044091ED
S11311A0100450911104C701B6010E94510C882308
S11311B04CF480914904813029F41092490485B19A
S11311C08E6F85B9FF90EF90DF90CF900895609176
S11311D0C9037091CA038091CB039091CC032091F1
S11311E022043091230440912404509125040E9448
S11311F0B00D8823ACF080914B04813089F4809346
S11312004B0488B1806488B92FEF89EF90E02150B6
S113121080409040E1F700C0000088B18F7B88B91E
S11312206091C9037091CA038091CB039091CC0360
S113123020912204309123044091240450912504E8
S11312400E94B00D8823ACF080914B04813089F466
S113125010924B0488B1806488B92FEF89EF90E035
S1131260215080409040E1F700C0000088B18F7B9E
S113127088B908956091C5037091C6038091C7032E
S11312809091C803209116043091170440911804DA
S1131290509119040E94510C1816B4F0809148041E
S11312A0811112C081E08093480488B1806288B9BA
S11312B02FEF89EF90E0215080409040E1F700C08B
S11312C0000088B18F7D88B96091C5037091C60311
S11312D08091C7039091C80320911A0430911B0494
S11312E040911C0450911D040E94B00D8823ACF061
S11312F080914804813089F41092480488B1806256
S113130088B92FEF89EF90E0215080409040E1F7B9
S113131000C0000088B18F7D88B90895AF92BF9254
S1131320CF92DF92EF92FF920F931F93CF93DF93AD
S11313300F2EFEE3AF2EF4E0BF2EF02DF5016081F9
S1131340718180E090E00E94FE0CE0902604F09011
S11313502704009128041091290420912A04309133
S11313602B0440912C0450912D040E945B030F2EFA
S1131370F1ECCF2EF3E0DF2EF02DF60160837183C4
S113138082839383F50162817381CEE2D4E080E0AD
S113139090E00E94FE0CE880F9800A811B812C8178
S11313A03D814E815F810E945B03F60164837583F6
S11313B086839783F50164817581C6E3D4E080E078
S11313C090E00E94FE0CE880F9800A811B812C8148
S11313D03D814E815F810E945B03F60160877187C6
S11313E0828793870E94A6080E943A090E94E70810
S11313F080914604833099F028F4813041F08230A2
S113140051F016C0843079F0853081F011C081E04C
S11314100E94AA030DC082E00E94AA0309C083E0CF
S11314200E94AA0305C00E94010502C00E949B05F8
S1131430FFEF27EE83E0F15020408040E1F700C049
S11314400000DF91CF911F910F91FF90EF90DF90FB
S1131450CF90BF90AF900895E6E4F4E080818F5F71
S113146080839181981718F481E0809346040E9448
S11314708E09089595B19D7F95B9662329F095B19C
S1131480986095B990E01FC095B1977F95B9FACF50
S113149047E050E0491B5109282F30E002C0359540
S11314A027954A95E2F720FF04C025B1206125B9AC
S11314B003C025B12F7E25B925B1206225B925B1F8
S11314C02F7D25B99F5F983018F385B1826085B967
S11314D0089560E00E943A0A089561E00E943A0A81
S11314E00895CF93DF9384B1826084B984B184601A
S11314F084B984B1886084B984B1806184B984B1C9
S1131500806284B985B1846085B985B1826085B90A
S113151083EC99E00197F1F700C0000085B18B7F5F
S113152085B98BE594E40197F1F700C0000085B11B
S1131530846085B985B18D7F85B981E20E94690A8D
S113154083E10E94690A86E00E94690A82EC0E9493
S1131550690A80E20E94690A89E00E94690A80E8B7
S11315600E94690A80E40E94690AC0E0D0E004C0D5
S113157080E00E946D0A2196C83F91E0D907C0F32C
S113158088E00E94690A8CE00E94690ADF91CF9189
S1131590089580E80E94690A80E40E94690A109212
S11315A0BE031092BF0380E090E005C0FC01EA5343
S11315B0FE4F10820196883F21E09207B8F3089508
S11315C0262F26952695269590E034E5239F800DB9
S11315D0911D1124442379F0677021E030E002C0AA
S11315E0220F331F6A95E2F7FC01EA53FE4F808114
S11315F0282B20830895677021E030E002C0220F79
S1131600331F6A95E2F7FC01EA53FE4F209580816F
S1131610282320830895EF92FF920F931F93CF9373
S1131620DF93E82EF62E00E045C02E2D30E0205248
S11316303109802F6F2D0E94220EF901EE0FFF1F3A
S1131640EE0FFF1FE20FF31FE80FF11DE859FF4FE4
S1131650E491812F0E94220EF0E002C0F595E795F7
S11316608A95E2F7E0FF0AC06091BF038091BE0350
S1131670610F41E0800F0E94E00A09C06091BF033E
S11316808091BE03610F40E0800F0E94E00A1F5F5B
S113169001C010E0212F30E0CE01880F991F880F80
S11316A0991F880F991F8C1B9D0B281739070CF461
S11316B0BCCF0F5F202F30E0CF2DD0E0CE01880FBC
S11316C0991F880F991F8C0F9D1F281739070CF33A
S11316D0EEEBF3E08F2D880F880F8F0D9081890F2B
S11316E08F5F8083843570F01092BE03EFEBF3E0DC
S11316F08F2D880F880F880F982F9F198081890F4D
S11317008F5F80838091BF03803320F01092BE03EB
S11317101092BF03DF91CF911F910F91FF90EF9033
S113172008951F93CF93DF93EC01162F04C02196E5
S1131730612F0E940B0B88818111F9CFDF91CF912A
S11317401F9108958093BE036093BF030895CF93C0
S1131750DF9380E80E94690A80E40E94690AC0E07D
S1131760D0E007C0FE01EA53FE4F80810E946D0A5B
S11317702196C83F81E0D807A8F3DF91CF9108955F
S11317802FB7F894FC01608340832FBF0895E4E6EB
S1131790F0E080818F7D808381E084BD80E00895C6
S11317A01F920F920FB60F9211248F9385B381600D
S11317B085BB8091C0038F5F8093C0038F910F908E
S11317C00FBE0F901F9018955058BB27AA270E9450
S11317D0FC0B0C94760D0E94680D38F00E946F0D7E
S11317E020F039F49F3F19F426F40C94650D0EF49F
S11317F0E095E7FB0C945F0DE92F0E94870D58F3E9
S1131800BA17620773078407950720F079F4A6F5E1
S11318100C94A90D0EF4E0950B2EBA2FA02D0B01FC
S1131820B90190010C01CA01A0011124FF27591B21
S113183099F0593F50F4503E68F11A16F040A22F27
S1131840232F342F4427585FF3CF46953795279598
S1131850A795F0405395C9F77EF41F16BA0B620B97
S1131860730B840BBAF09150A1F0FF0FBB1F661FDE
S1131870771F881FC2F70EC0BA0F621F731F841F21
S113188048F4879577956795B795F7959E3F08F047
S1131890B0CF9395880F08F09927EE0F9795879509
S11318A008950E943B0D08F481E008950E946A0C9B
S11318B00C94760D0E946F0D58F00E94680D40F054
S11318C029F45F3F29F00C945F0D51110C94AA0D7B
S11318D00C94650D0E94870D68F39923B1F3552389
S11318E091F3951B550BBB27AA276217730784072F
S11318F038F09F5F5F4F220F331F441FAA1FA9F3C5
S113190035D00E2E3AF0E0E832D091505040E695B2
S1131910001CCAF72BD0FE2F29D0660F771F881F13
S1131920BB1F261737074807AB07B0E809F0BB0B06
S1131930802DBF01FF2793585F4F3AF09E3F51051A
S113194078F00C945F0D0C94AA0D5F3FE4F3983E7D
S1131950D4F3869577956795B795F7959F5FC9F703
S1131960880F911D9695879597F90895E1E0660F84
S1131970771F881FBB1F621773078407BA0720F0FD
S1131980621B730B840BBA0BEE1F88F7E095089566
S11319900E94CF0C6894B1110C94AA0D08950E9472
S11319A08F0D88F09F5798F0B92F9927B751B0F051
S11319B0E1F0660F771F881F991F1AF0BA95C9F7CF
S11319C014C0B13091F00E94A90DB1E008950C94B7
S11319D0A90D672F782F8827B85F39F0B93FCCF36A
S11319E0869577956795B395D9F73EF4909580954C
S11319F0709561957F4F8F4F9F4F0895E89409C06C
S1131A0097FB3EF490958095709561957F4F8F4F2D
S1131A109F4F9923A9F0F92F96E9BB279395F69543
S1131A20879577956795B795F111F8CFFAF4BB0FC1
S1131A3011F460FF1BC06F5F7F4F8F4F9F4F16C025
S1131A40882311F096E911C0772321F09EE8872FAF
S1131A50762F05C0662371F096E8862F70E060E06B
S1131A602AF09A95660F771F881FDAF7880F9695E4
S1131A70879597F90895990F0008550FAA0BE0E888
S1131A80FEEF16161706E807F907C0F0121613063C
S1131A90E407F50798F0621B730B840B950B39F47C
S1131AA00A2661F0232B242B252B21F408950A26E2
S1131AB009F4A140A6958FEF811D811D089597F922
S1131AC09F6780E870E060E008959FEF80EC0895E0
S1131AD000240A9416161706180609060895002409
S1131AE00A9412161306140605060895092E039483
S1131AF0000C11F4882352F0BB0F40F4BF2B11F4F7
S1131B0060FF04C06F5F7F4F8F4F9F4F089557FD55
S1131B109058440F551F59F05F3F71F04795880F57
S1131B2097FB991F61F09F3F79F0879508951216EE
S1131B3013061406551FF2CF4695F1DF08C016169A
S1131B4017061806991FF1CF86957105610508944B
S1131B500895E894BB2766277727CB0197F9089562
S1131B600E943B0D08F48FEF08950E94C80D0C9459
S1131B70760D0E94680D38F00E946F0D20F09523B9
S1131B8011F00C945F0D0C94650D11240C94AA0DA6
S1131B900E94870D70F3959FC1F3950F50E0551F78
S1131BA0629FF001729FBB27F00DB11D639FAA27AE
S1131BB0F00DB11DAA1F649F6627B00DA11D661FFD
S1131BC0829F2227B00DA11D621F739FB00DA11D1E
S1131BD0621F839FA00D611D221F749F3327A00DD8
S1131BE0611D231F849F600D211D822F762F6A2F74
S1131BF011249F5750409AF0F1F088234AF0EE0FD9
S1131C00FF1FBB1F661F771F881F91505040A9F705
S1131C109E3F510580F00C945F0D0C94AA0D5F3F1C
S1131C20E4F3983ED4F3869577956795B795F79541
S1131C30E7959F5FC1F7FE2B880F911D96958795B9
S1131C4097F90895991B79E004C0991F961708F035
S1131C50961B881F7A95C9F780950895AEE0B0E089
S1131C60E4E3FEE00C94FD100D891E898F89988DA4
S1131C7026E02C831A83098397FF02C080E090E852
S1131C8001979E838D83AE01455E5F4F698D7A8D8A
S1131C90CE0101960E945E0E4D815E8157FD0AC001
S1131CA02F813885421753070CF49A01F801E20F8B
S1131CB0F31F10822E96E4E00C941911ABE0B0E00F
S1131CC0E4E6FEE00C94EF106C017B018A01FC0158
S1131CD017821682838181FFCCC1CE0101963C011B
S1131CE0F6019381F70193FD859193FF81917F0123
S1131CF0882309F4BAC1853239F493FD859193FFA1
S1131D0081917F01853229F4B60190E00E9455103B
S1131D10E7CF912C212C312CFFE1F315D8F08B3235
S1131D2079F038F4803279F08332A1F4232D2061E4
S1131D301DC08D3261F0803369F4232D216016C0FB
S1131D40832D8260382EE32DE4603E2E2AC0F32DCD
S1131D50F8601DC037FC2DC020ED280F2A3040F05C
S1131D608E32B9F436FC81C1232D2064322E19C081
S1131D7036FE06C08AE0989E200D1124922E11C0D2
S1131D80EAE02E9E200D1124222EF32DF0623F2E28
S1131D9008C08C3621F4832D8068382E02C0883622
S1131DA041F4F70193FD859193FF81917F018111A6
S1131DB0B3CF982F9F7D9554933028F40C5F1F4F19
S1131DC09FE399830DC0833631F0833771F08335F7
S1131DD009F059C021C0F801808189830E5F1F4F2B
S1131DE088248394912C530113C02801F2E04F0EF0
S1131DF0511CF801A080B18036FE03C0692D70E04B
S1131E0002C06FEF7FEFC5010E944A104C018201AE
S1131E10F32DFF773F2E16C0280122E0420E511CFD
S1131E20F801A080B18036FE03C0692D70E002C0C5
S1131E306FEF7FEFC5010E943F104C01F32DF06856
S1131E403F2E820133FC1BC0822D90E08816990638
S1131E50B0F4B60180E290E00E9455102A94F4CFC9
S1131E60F50137FC859137FE81915F01B60190E061
S1131E700E94551021102A9421E0821A910881149D
S1131E80910471F7E8C0843611F0893641F5F80100
S1131E9037FE07C060817181828193810C5F1F4F7F
S1131EA008C060817181072E000C880B990B0E5FAE
S1131EB01F4FF32DFF763F2E97FF09C09095809515
S1131EC0709561957F4F8F4F9F4FF0683F2E2AE0AA
S1131ED030E0A3010E949110882E861845C08537F2
S1131EE031F4232D2F7EB22E2AE030E025C0932D2D
S1131EF0997FB92E8F36C1F018F4883579F0B5C0C2
S1131F00803719F0883721F0B0C0E92FE061BE2E88
S1131F10B4FE0DC0FB2DF460BF2E09C034FE0AC010
S1131F20292F2660B22E06C028E030E005C020E14B
S1131F3030E002C020E132E0F801B7FE07C0608162
S1131F407181828193810C5F1F4F06C06081718112
S1131F5080E090E00E5F1F4FA3010E949110882E35
S1131F608618FB2DFF773F2E36FE0DC0232D2E7FC6
S1131F70A22E891458F434FE0BC032FC09C0832D00
S1131F808E7EA82E05C0B82CA32C03C0B82C01C08B
S1131F90B92CA4FE0FC0FE01E80DF11D8081803331
S1131FA021F49A2D997EA92E09C0A2FE06C0B394ED
S1131FB0B39404C08A2D867809F0B394A3FC11C0AD
S1131FC0A0FE06C0B21488F4280C922C9B180EC0F4
S1131FD0B21460F4B60180E290E00E945510B3940C
S1131FE0F7CFB21418F42B1802C0982C212CA4FE9D
S1131FF010C0B60180E390E00E945510A2FE17C005
S1132000A1FC03C088E790E002C088E590E0B60137
S11320100CC08A2D867859F0A1FE02C08BE201C063
S113202080E2A7FC8DE2B60190E00E94551089146D
S113203038F4B60180E390E00E9455109A94F7CFEB
S11320408A94F301E80DF11D8081B60190E00E94AD
S113205055108110F5CF222009F442CEB60180E25A
S113206090E00E9455102A94F6CFF601868197815C
S113207002C08FEF9FEF2B96E2E10C940B11FC0151
S11320800590615070400110D8F7809590958E0F9F
S11320909F1F0895FC016150704001900110D8F712
S11320A0809590958E0F9F1F08950F931F93CF9344
S11320B0DF93FB01238121FD03C08FEF9FEF2CC031
S11320C022FF16C046815781248135814217530768
S11320D044F4A081B1819D012F5F3F4F3183208360
S11320E08C93268137812F5F3F4F3783268314C01B
S11320F08B01EC01FB010084F185E02D0995892B0E
S1132100E1F6D80116968D919C9117970196179632
S11321109C938E931697CE01DF91CF911F910F91CF
S11321200895FA01AA27283051F1203181F1E89469
S11321306F936E7F6E5F7F4F8F4F9F4FAF4FB1E0B6
S11321403ED0B4E03CD0670F781F891F9A1FA11DB1
S1132150680F791F8A1F911DA11D6A0F711D811DB2
S1132160911DA11D20D009F468943F912AE0269F77
S113217011243019305D3193DEF6CF010895462FD6
S11321804770405D4193B3E00FD0C9F7F6CF462FB7
S11321904F70405D4A3318F0495D31FD4052419320
S11321A002D0A9F7EACFB4E0A695979587957795DD
S11321B06795BA95C9F700976105710508959B0164
S11321C0AC010A2E06945795479537952795BA95ED
S11321D0C9F7620F731F841F951FA01D08952F92C6
S11321E03F924F925F926F927F928F929F92AF92A3
S11321F0BF92CF92DF92EF92FF920F931F93CF93F0
S1132200DF93CDB7DEB7CA1BDB0B0FB6F894DEBF86
S11322100FBECDBF09942A88398848885F846E84AC
S11322207D848C849B84AA84B984C884DF80EE80F6
S1132230FD800C811B81AA81B981CE0FD11D0FB6FF
S1132240F894DEBF0FBECDBFED010895F894FFCF23
S113225020202020706167696E612025642F256429
S1132260004461646F73206D656469646F73004337
S11322706F6E666967206D696E00436F6E6669678D
S1132280206D61780054656D703A200025642C251A
S113229064204300556D69643A200025642C25644C
S11322A020252500526164733A2000256420572FAD
S11322B0667432005374617475732061747561645B
S11322C06F7200416775613A200041723A20004CF8
S11322D045443A20005465746F3A2000556D696492
S11322E06164650054656D70657261747572610036
S11322F04D6F646F2064652045646963616F0056A7
S1132300616C6F723A2000526164696163616F208D
S1092310536F6C617200C2
S9030000FC
